{"abi":[{"type":"constructor","inputs":[{"name":"_receipt","type":"address","internalType":"address"}],"stateMutability":"nonpayable"},{"type":"function","name":"buyEnergy","inputs":[{"name":"seller","type":"address","internalType":"address"},{"name":"kwh","type":"uint256","internalType":"uint256"}],"outputs":[],"stateMutability":"payable"},{"type":"function","name":"cancelTrade","inputs":[{"name":"tradeId","type":"uint256","internalType":"uint256"}],"outputs":[],"stateMutability":"nonpayable"},{"type":"function","name":"confirmDelivery","inputs":[{"name":"tradeId","type":"uint256","internalType":"uint256"}],"outputs":[],"stateMutability":"nonpayable"},{"type":"function","name":"deactivateListing","inputs":[],"outputs":[],"stateMutability":"nonpayable"},{"type":"function","name":"getActiveListings","inputs":[],"outputs":[{"name":"","type":"tuple[]","internalType":"struct EnergyMarket.ListingView[]","components":[{"name":"seller","type":"address","internalType":"address"},{"name":"pricePerKwh","type":"uint256","internalType":"uint256"},{"name":"availableKwh","type":"uint256","internalType":"uint256"}]}],"stateMutability":"view"},{"type":"function","name":"getTrade","inputs":[{"name":"tradeId","type":"uint256","internalType":"uint256"}],"outputs":[{"name":"","type":"tuple","internalType":"struct EnergyMarket.Trade","components":[{"name":"seller","type":"address","internalType":"address"},{"name":"buyer","type":"address","internalType":"address"},{"name":"kwh","type":"uint256","internalType":"uint256"},{"name":"amount","type":"uint256","internalType":"uint256"},{"name":"status","type":"uint8","internalType":"enum EnergyMarket.TradeStatus"},{"name":"timestamp","type":"uint256","internalType":"uint256"}]}],"stateMutability":"view"},{"type":"function","name":"listings","inputs":[{"name":"","type":"address","internalType":"address"}],"outputs":[{"name":"pricePerKwh","type":"uint256","internalType":"uint256"},{"name":"availableKwh","type":"uint256","internalType":"uint256"},{"name":"active","type":"bool","internalType":"bool"}],"stateMutability":"view"},{"type":"function","name":"owner","inputs":[],"outputs":[{"name":"","type":"address","internalType":"address"}],"stateMutability":"view"},{"type":"function","name":"quoteEnergy","inputs":[{"name":"seller","type":"address","internalType":"address"},{"name":"kwh","type":"uint256","internalType":"uint256"}],"outputs":[{"name":"amount","type":"uint256","internalType":"uint256"}],"stateMutability":"view"},{"type":"function","name":"receipt","inputs":[],"outputs":[{"name":"","type":"address","internalType":"contract EnergyReceipt"}],"stateMutability":"view"},{"type":"function","name":"registerProducer","inputs":[{"name":"pricePerKwh","type":"uint256","internalType":"uint256"},{"name":"availableKwh","type":"uint256","internalType":"uint256"}],"outputs":[],"stateMutability":"nonpayable"},{"type":"function","name":"renounceOwnership","inputs":[],"outputs":[],"stateMutability":"nonpayable"},{"type":"function","name":"totalTrades","inputs":[],"outputs":[{"name":"","type":"uint256","internalType":"uint256"}],"stateMutability":"view"},{"type":"function","name":"tradeCounter","inputs":[],"outputs":[{"name":"","type":"uint256","internalType":"uint256"}],"stateMutability":"view"},{"type":"function","name":"trades","inputs":[{"name":"","type":"uint256","internalType":"uint256"}],"outputs":[{"name":"seller","type":"address","internalType":"address"},{"name":"buyer","type":"address","internalType":"address"},{"name":"kwh","type":"uint256","internalType":"uint256"},{"name":"amount","type":"uint256","internalType":"uint256"},{"name":"status","type":"uint8","internalType":"enum EnergyMarket.TradeStatus"},{"name":"timestamp","type":"uint256","internalType":"uint256"}],"stateMutability":"view"},{"type":"function","name":"transferOwnership","inputs":[{"name":"newOwner","type":"address","internalType":"address"}],"outputs":[],"stateMutability":"nonpayable"},{"type":"function","name":"updateListing","inputs":[{"name":"pricePerKwh","type":"uint256","internalType":"uint256"},{"name":"availableKwh","type":"uint256","internalType":"uint256"}],"outputs":[],"stateMutability":"nonpayable"},{"type":"event","name":"ListingDeactivated","inputs":[{"name":"seller","type":"address","indexed":true,"internalType":"address"}],"anonymous":false},{"type":"event","name":"ListingUpdated","inputs":[{"name":"seller","type":"address","indexed":true,"internalType":"address"},{"name":"pricePerKwh","type":"uint256","indexed":false,"internalType":"uint256"},{"name":"availableKwh","type":"uint256","indexed":false,"internalType":"uint256"}],"anonymous":false},{"type":"event","name":"OwnershipTransferred","inputs":[{"name":"previousOwner","type":"address","indexed":true,"internalType":"address"},{"name":"newOwner","type":"address","indexed":true,"internalType":"address"}],"anonymous":false},{"type":"event","name":"ProducerRegistered","inputs":[{"name":"seller","type":"address","indexed":true,"internalType":"address"},{"name":"pricePerKwh","type":"uint256","indexed":false,"internalType":"uint256"},{"name":"availableKwh","type":"uint256","indexed":false,"internalType":"uint256"}],"anonymous":false},{"type":"event","name":"TradeCancelled","inputs":[{"name":"tradeId","type":"uint256","indexed":true,"internalType":"uint256"},{"name":"buyer","type":"address","indexed":true,"internalType":"address"},{"name":"refund","type":"uint256","indexed":false,"internalType":"uint256"}],"anonymous":false},{"type":"event","name":"TradeCompleted","inputs":[{"name":"tradeId","type":"uint256","indexed":true,"internalType":"uint256"},{"name":"seller","type":"address","indexed":true,"internalType":"address"},{"name":"buyer","type":"address","indexed":true,"internalType":"address"},{"name":"nftTokenId","type":"uint256","indexed":false,"internalType":"uint256"}],"anonymous":false},{"type":"event","name":"TradeCreated","inputs":[{"name":"tradeId","type":"uint256","indexed":true,"internalType":"uint256"},{"name":"seller","type":"address","indexed":true,"internalType":"address"},{"name":"buyer","type":"address","indexed":true,"internalType":"address"},{"name":"kwh","type":"uint256","indexed":false,"internalType":"uint256"},{"name":"amount","type":"uint256","indexed":false,"internalType":"uint256"}],"anonymous":false},{"type":"error","name":"OwnableInvalidOwner","inputs":[{"name":"owner","type":"address","internalType":"address"}]},{"type":"error","name":"OwnableUnauthorizedAccount","inputs":[{"name":"account","type":"address","internalType":"address"}]},{"type":"error","name":"ReentrancyGuardReentrantCall","inputs":[]}],"bytecode":{"object":"0x60a060405234801562000010575f80fd5b50604051620031d9380380620031d98339818101604052810190620000369190620002e8565b336001620000596200004d6200019060201b60201c565b620001b960201b60201c565b5f01819055505f73ffffffffffffffffffffffffffffffffffffffff168173ffffffffffffffffffffffffffffffffffffffff1603620000d2575f6040517f1e4fbdf7000000000000000000000000000000000000000000000000000000008152600401620000c9919062000329565b60405180910390fd5b620000e381620001c260201b60201c565b505f73ffffffffffffffffffffffffffffffffffffffff168173ffffffffffffffffffffffffffffffffffffffff160362000155576040517f08c379a00000000000000000000000000000000000000000000000000000000081526004016200014c90620003a2565b60405180910390fd5b8073ffffffffffffffffffffffffffffffffffffffff1660808173ffffffffffffffffffffffffffffffffffffffff168152505050620003c2565b5f7f9b779b17422d0df92223018b32b4d1fa46e071723d6817e2486d003becc55f005f1b905090565b5f819050919050565b5f805f9054906101000a900473ffffffffffffffffffffffffffffffffffffffff169050815f806101000a81548173ffffffffffffffffffffffffffffffffffffffff021916908373ffffffffffffffffffffffffffffffffffffffff1602179055508173ffffffffffffffffffffffffffffffffffffffff168173ffffffffffffffffffffffffffffffffffffffff167f8be0079c531659141344cd1fd0a4f28419497f9722a3daafe3b4186f6b6457e060405160405180910390a35050565b5f80fd5b5f73ffffffffffffffffffffffffffffffffffffffff82169050919050565b5f620002b28262000287565b9050919050565b620002c481620002a6565b8114620002cf575f80fd5b50565b5f81519050620002e281620002b9565b92915050565b5f602082840312156200030057620002ff62000283565b5b5f6200030f84828501620002d2565b91505092915050565b6200032381620002a6565b82525050565b5f6020820190506200033e5f83018462000318565b92915050565b5f82825260208201905092915050565b7f456e657267794d61726b65743a207a65726f20616464726573730000000000005f82015250565b5f6200038a601a8362000344565b9150620003978262000354565b602082019050919050565b5f6020820190508181035f830152620003bb816200037c565b9050919050565b608051612df7620003e25f395f81816117370152611a670152612df75ff3fe6080604052600436106100fd575f3560e01c80636cae5dff11610094578063e1e6b89811610063578063e1e6b898146102fa578063e275c99714610324578063f08379be1461034e578063f2fde38b1461038a578063fd84cb97146103b2576100fd565b80636cae5dff1461027a578063715018a61461029057806387c35bc0146102a65780638da5cb5b146102d0576100fd565b806336fd7e1b116100d057806336fd7e1b146101ce5780634821b367146101ea57806365d96c8214610212578063660d15b514610250576100fd565b80630179ea881461010157806309ec6cc7146101295780631e6c598e146101515780632db25e0514610192575b5f80fd5b34801561010c575f80fd5b5061012760048036038101906101229190611fd5565b6103da565b005b348015610134575f80fd5b5061014f600480360381019061014a9190612013565b610568565b005b34801561015c575f80fd5b5061017760048036038101906101729190612013565b610a77565b604051610189969594939291906120ff565b60405180910390f35b34801561019d575f80fd5b506101b860048036038101906101b39190612013565b610af9565b6040516101c59190612204565b60405180910390f35b6101e860048036038101906101e39190612247565b610c69565b005b3480156101f5575f80fd5b50610210600480360381019061020b9190611fd5565b611086565b005b34801561021d575f80fd5b5061023860048036038101906102339190612285565b6112f1565b604051610247939291906122ca565b60405180910390f35b34801561025b575f80fd5b50610264611323565b60405161027191906122ff565b60405180910390f35b348015610285575f80fd5b5061028e611329565b005b34801561029b575f80fd5b506102a461144e565b005b3480156102b1575f80fd5b506102ba611461565b6040516102c79190612400565b60405180910390f35b3480156102db575f80fd5b506102e461170e565b6040516102f19190612420565b60405180910390f35b348015610305575f80fd5b5061030e611735565b60405161031b9190612494565b60405180910390f35b34801561032f575f80fd5b50610338611759565b60405161034591906122ff565b60405180910390f35b348015610359575f80fd5b50610374600480360381019061036f9190612247565b611762565b60405161038191906122ff565b60405180910390f35b348015610395575f80fd5b506103b060048036038101906103ab9190612285565b611855565b005b3480156103bd575f80fd5b506103d860048036038101906103d39190612013565b6118d9565b005b60055f3373ffffffffffffffffffffffffffffffffffffffff1673ffffffffffffffffffffffffffffffffffffffff1681526020019081526020015f205f9054906101000a900460ff16610463576040517f08c379a000000000000000000000000000000000000000000000000000000000815260040161045a9061252d565b60405180910390fd5b5f82116104a5576040517f08c379a000000000000000000000000000000000000000000000000000000000815260040161049c90612595565b60405180910390fd5b5f60015f3373ffffffffffffffffffffffffffffffffffffffff1673ffffffffffffffffffffffffffffffffffffffff1681526020019081526020015f20905082815f01819055508181600101819055505f8211816002015f6101000a81548160ff0219169083151502179055503373ffffffffffffffffffffffffffffffffffffffff167f3e11d82182e9689c0f7ffc3ce2a4a057e1fc080032c0dcce9c269258c874a86c848460405161055b9291906125b3565b60405180910390a2505050565b610570611ce2565b5f60025f8381526020019081526020015f2090505f60028111156105975761059661208c565b5b816004015f9054906101000a900460ff1660028111156105ba576105b961208c565b5b146105fa576040517f08c379a00000000000000000000000000000000000000000000000000000000081526004016105f190612624565b60405180910390fd5b806001015f9054906101000a900473ffffffffffffffffffffffffffffffffffffffff1673ffffffffffffffffffffffffffffffffffffffff163373ffffffffffffffffffffffffffffffffffffffff1614806106a45750805f015f9054906101000a900473ffffffffffffffffffffffffffffffffffffffff1673ffffffffffffffffffffffffffffffffffffffff163373ffffffffffffffffffffffffffffffffffffffff16145b806106e157506106b261170e565b73ffffffffffffffffffffffffffffffffffffffff163373ffffffffffffffffffffffffffffffffffffffff16145b610720576040517f08c379a00000000000000000000000000000000000000000000000000000000081526004016107179061268c565b60405180910390fd5b6002816004015f6101000a81548160ff021916908360028111156107475761074661208c565b5b0217905550806002015460015f835f015f9054906101000a900473ffffffffffffffffffffffffffffffffffffffff1673ffffffffffffffffffffffffffffffffffffffff1673ffffffffffffffffffffffffffffffffffffffff1681526020019081526020015f206001015f8282546107c191906126d7565b9250508190555060015f825f015f9054906101000a900473ffffffffffffffffffffffffffffffffffffffff1673ffffffffffffffffffffffffffffffffffffffff1673ffffffffffffffffffffffffffffffffffffffff1681526020019081526020015f206002015f9054906101000a900460ff161580156108a557505f60015f835f015f9054906101000a900473ffffffffffffffffffffffffffffffffffffffff1673ffffffffffffffffffffffffffffffffffffffff1673ffffffffffffffffffffffffffffffffffffffff1681526020019081526020015f2060010154115b15610924576001805f835f015f9054906101000a900473ffffffffffffffffffffffffffffffffffffffff1673ffffffffffffffffffffffffffffffffffffffff1673ffffffffffffffffffffffffffffffffffffffff1681526020019081526020015f206002015f6101000a81548160ff0219169083151502179055505b5f816003015490505f826001015f9054906101000a900473ffffffffffffffffffffffffffffffffffffffff1673ffffffffffffffffffffffffffffffffffffffff168260405161097490612737565b5f6040518083038185875af1925050503d805f81146109ae576040519150601f19603f3d011682016040523d82523d5f602084013e6109b3565b606091505b50509050806109f7576040517f08c379a00000000000000000000000000000000000000000000000000000000081526004016109ee90612795565b60405180910390fd5b826001015f9054906101000a900473ffffffffffffffffffffffffffffffffffffffff1673ffffffffffffffffffffffffffffffffffffffff16847f39589118665ecc4259f60e6f10eafc49b52d7cba5c31f5e1e2aa770aab3fbc0d84604051610a6191906122ff565b60405180910390a3505050610a74611d04565b50565b6002602052805f5260405f205f91509050805f015f9054906101000a900473ffffffffffffffffffffffffffffffffffffffff1690806001015f9054906101000a900473ffffffffffffffffffffffffffffffffffffffff1690806002015490806003015490806004015f9054906101000a900460ff16908060050154905086565b610b01611efc565b6003548210610b45576040517f08c379a0000000000000000000000000000000000000000000000000000000008152600401610b3c90612823565b60405180910390fd5b60025f8381526020019081526020015f206040518060c00160405290815f82015f9054906101000a900473ffffffffffffffffffffffffffffffffffffffff1673ffffffffffffffffffffffffffffffffffffffff1673ffffffffffffffffffffffffffffffffffffffff168152602001600182015f9054906101000a900473ffffffffffffffffffffffffffffffffffffffff1673ffffffffffffffffffffffffffffffffffffffff1673ffffffffffffffffffffffffffffffffffffffff1681526020016002820154815260200160038201548152602001600482015f9054906101000a900460ff166002811115610c4257610c4161208c565b5b6002811115610c5457610c5361208c565b5b81526020016005820154815250509050919050565b610c71611ce2565b5f8111610cb3576040517f08c379a0000000000000000000000000000000000000000000000000000000008152600401610caa9061288b565b60405180910390fd5b3373ffffffffffffffffffffffffffffffffffffffff168273ffffffffffffffffffffffffffffffffffffffff1603610d21576040517f08c379a0000000000000000000000000000000000000000000000000000000008152600401610d1890612919565b60405180910390fd5b5f60015f8473ffffffffffffffffffffffffffffffffffffffff1673ffffffffffffffffffffffffffffffffffffffff1681526020019081526020015f209050806002015f9054906101000a900460ff16610db1576040517f08c379a0000000000000000000000000000000000000000000000000000000008152600401610da890612981565b60405180910390fd5b8181600101541015610df8576040517f08c379a0000000000000000000000000000000000000000000000000000000008152600401610def90612a0f565b60405180910390fd5b5f670de0b6b3a7640000825f015484610e119190612a2d565b610e1b9190612a9b565b9050803414610e5f576040517f08c379a0000000000000000000000000000000000000000000000000000000008152600401610e5690612b3b565b60405180910390fd5b82826001015f828254610e729190612b59565b925050819055505f826001015403610ea0575f826002015f6101000a81548160ff0219169083151502179055505b5f60035f815480929190610eb390612b8c565b9190505590506040518060c001604052808673ffffffffffffffffffffffffffffffffffffffff1681526020013373ffffffffffffffffffffffffffffffffffffffff1681526020018581526020013481526020015f6002811115610f1b57610f1a61208c565b5b81526020014281525060025f8381526020019081526020015f205f820151815f015f6101000a81548173ffffffffffffffffffffffffffffffffffffffff021916908373ffffffffffffffffffffffffffffffffffffffff1602179055506020820151816001015f6101000a81548173ffffffffffffffffffffffffffffffffffffffff021916908373ffffffffffffffffffffffffffffffffffffffff16021790555060408201518160020155606082015181600301556080820151816004015f6101000a81548160ff02191690836002811115610ffd57610ffc61208c565b5b021790555060a082015181600501559050503373ffffffffffffffffffffffffffffffffffffffff168573ffffffffffffffffffffffffffffffffffffffff16827ff7cdeae600171136f77d3df848176c47ce8102a3be1a47edcfda2b7b892fe301873460405161106f9291906125b3565b60405180910390a4505050611082611d04565b5050565b5f82116110c8576040517f08c379a00000000000000000000000000000000000000000000000000000000081526004016110bf90612595565b60405180910390fd5b5f811161110a576040517f08c379a000000000000000000000000000000000000000000000000000000000815260040161110190612c1d565b60405180910390fd5b60405180606001604052808381526020018281526020016001151581525060015f3373ffffffffffffffffffffffffffffffffffffffff1673ffffffffffffffffffffffffffffffffffffffff1681526020019081526020015f205f820151815f0155602082015181600101556040820151816002015f6101000a81548160ff02191690831515021790555090505060055f3373ffffffffffffffffffffffffffffffffffffffff1673ffffffffffffffffffffffffffffffffffffffff1681526020019081526020015f205f9054906101000a900460ff1661129d57600160055f3373ffffffffffffffffffffffffffffffffffffffff1673ffffffffffffffffffffffffffffffffffffffff1681526020019081526020015f205f6101000a81548160ff021916908315150217905550600433908060018154018082558091505060019003905f5260205f20015f9091909190916101000a81548173ffffffffffffffffffffffffffffffffffffffff021916908373ffffffffffffffffffffffffffffffffffffffff1602179055505b3373ffffffffffffffffffffffffffffffffffffffff167f33f678b359981e7513d2ed7481c6ce365bd93ad4e85b430e50684745acf8f40a83836040516112e59291906125b3565b60405180910390a25050565b6001602052805f5260405f205f91509050805f015490806001015490806002015f9054906101000a900460ff16905083565b60035481565b60055f3373ffffffffffffffffffffffffffffffffffffffff1673ffffffffffffffffffffffffffffffffffffffff1681526020019081526020015f205f9054906101000a900460ff166113b2576040517f08c379a00000000000000000000000000000000000000000000000000000000081526004016113a99061252d565b60405180910390fd5b5f60015f3373ffffffffffffffffffffffffffffffffffffffff1673ffffffffffffffffffffffffffffffffffffffff1681526020019081526020015f206002015f6101000a81548160ff0219169083151502179055503373ffffffffffffffffffffffffffffffffffffffff167f1d374db104e02e6a8ff8cf799e5db9a44b7a1931b902788af0ba0ec5f6f9194760405160405180910390a2565b611456611d1e565b61145f5f611da5565b565b60605f805f90505b60048054905081101561151f5760015f6004838154811061148d5761148c612c3b565b5b905f5260205f20015f9054906101000a900473ffffffffffffffffffffffffffffffffffffffff1673ffffffffffffffffffffffffffffffffffffffff1673ffffffffffffffffffffffffffffffffffffffff1681526020019081526020015f206002015f9054906101000a900460ff161561151257818061150e90612b8c565b9250505b8080600101915050611469565b505f8167ffffffffffffffff81111561153b5761153a612c68565b5b60405190808252806020026020018201604052801561157457816020015b611561611f6a565b8152602001906001900390816115595790505b5090505f805f90505b600480549050811015611704575f6004828154811061159f5761159e612c3b565b5b905f5260205f20015f9054906101000a900473ffffffffffffffffffffffffffffffffffffffff16905060015f8273ffffffffffffffffffffffffffffffffffffffff1673ffffffffffffffffffffffffffffffffffffffff1681526020019081526020015f206002015f9054906101000a900460ff16156116f65760405180606001604052808273ffffffffffffffffffffffffffffffffffffffff16815260200160015f8473ffffffffffffffffffffffffffffffffffffffff1673ffffffffffffffffffffffffffffffffffffffff1681526020019081526020015f205f0154815260200160015f8473ffffffffffffffffffffffffffffffffffffffff1673ffffffffffffffffffffffffffffffffffffffff1681526020019081526020015f20600101548152508484806116d790612b8c565b9550815181106116ea576116e9612c3b565b5b60200260200101819052505b50808060010191505061157d565b5081935050505090565b5f805f9054906101000a900473ffffffffffffffffffffffffffffffffffffffff16905090565b7f000000000000000000000000000000000000000000000000000000000000000081565b5f600354905090565b5f60015f8473ffffffffffffffffffffffffffffffffffffffff1673ffffffffffffffffffffffffffffffffffffffff1681526020019081526020015f206002015f9054906101000a900460ff166117ef576040517f08c379a00000000000000000000000000000000000000000000000000000000081526004016117e690612981565b60405180910390fd5b670de0b6b3a764000060015f8573ffffffffffffffffffffffffffffffffffffffff1673ffffffffffffffffffffffffffffffffffffffff1681526020019081526020015f205f0154836118439190612a2d565b61184d9190612a9b565b905092915050565b61185d611d1e565b5f73ffffffffffffffffffffffffffffffffffffffff168173ffffffffffffffffffffffffffffffffffffffff16036118cd575f6040517f1e4fbdf70000000000000000000000000000000000000000000000000000000081526004016118c49190612420565b60405180910390fd5b6118d681611da5565b50565b6118e1611ce2565b5f60025f8381526020019081526020015f2090505f60028111156119085761190761208c565b5b816004015f9054906101000a900460ff16600281111561192b5761192a61208c565b5b1461196b576040517f08c379a000000000000000000000000000000000000000000000000000000000815260040161196290612624565b60405180910390fd5b805f015f9054906101000a900473ffffffffffffffffffffffffffffffffffffffff1673ffffffffffffffffffffffffffffffffffffffff163373ffffffffffffffffffffffffffffffffffffffff1614806119f957506119ca61170e565b73ffffffffffffffffffffffffffffffffffffffff163373ffffffffffffffffffffffffffffffffffffffff16145b611a38576040517f08c379a0000000000000000000000000000000000000000000000000000000008152600401611a2f9061268c565b60405180910390fd5b6001816004015f6101000a81548160ff02191690836002811115611a5f57611a5e61208c565b5b02179055505f7f000000000000000000000000000000000000000000000000000000000000000073ffffffffffffffffffffffffffffffffffffffff16633b5a8255836001015f9054906101000a900473ffffffffffffffffffffffffffffffffffffffff16845f015f9054906101000a900473ffffffffffffffffffffffffffffffffffffffff16856002015486600301548888600501546040518763ffffffff1660e01b8152600401611b1996959493929190612c95565b6020604051808303815f875af1158015611b35573d5f803e3d5ffd5b505050506040513d601f19601f82011682018060405250810190611b599190612d08565b90505f825f015f9054906101000a900473ffffffffffffffffffffffffffffffffffffffff1673ffffffffffffffffffffffffffffffffffffffff168360030154604051611ba690612737565b5f6040518083038185875af1925050503d805f8114611be0576040519150601f19603f3d011682016040523d82523d5f602084013e611be5565b606091505b5050905080611c29576040517f08c379a0000000000000000000000000000000000000000000000000000000008152600401611c2090612da3565b60405180910390fd5b826001015f9054906101000a900473ffffffffffffffffffffffffffffffffffffffff1673ffffffffffffffffffffffffffffffffffffffff16835f015f9054906101000a900473ffffffffffffffffffffffffffffffffffffffff1673ffffffffffffffffffffffffffffffffffffffff16857fc5e52b7d7d074d930adb4855afb064491d2a14f05e80e13dc04fa0d54d19b95c85604051611ccc91906122ff565b60405180910390a4505050611cdf611d04565b50565b611cea611e66565b6002611cfc611cf7611ea7565b611ed0565b5f0181905550565b6001611d16611d11611ea7565b611ed0565b5f0181905550565b611d26611ed9565b73ffffffffffffffffffffffffffffffffffffffff16611d4461170e565b73ffffffffffffffffffffffffffffffffffffffff1614611da357611d67611ed9565b6040517f118cdaa7000000000000000000000000000000000000000000000000000000008152600401611d9a9190612420565b60405180910390fd5b565b5f805f9054906101000a900473ffffffffffffffffffffffffffffffffffffffff169050815f806101000a81548173ffffffffffffffffffffffffffffffffffffffff021916908373ffffffffffffffffffffffffffffffffffffffff1602179055508173ffffffffffffffffffffffffffffffffffffffff168173ffffffffffffffffffffffffffffffffffffffff167f8be0079c531659141344cd1fd0a4f28419497f9722a3daafe3b4186f6b6457e060405160405180910390a35050565b611e6e611ee0565b15611ea5576040517f3ee5aeb500000000000000000000000000000000000000000000000000000000815260040160405180910390fd5b565b5f7f9b779b17422d0df92223018b32b4d1fa46e071723d6817e2486d003becc55f005f1b905090565b5f819050919050565b5f33905090565b5f6002611ef3611eee611ea7565b611ed0565b5f015414905090565b6040518060c001604052805f73ffffffffffffffffffffffffffffffffffffffff1681526020015f73ffffffffffffffffffffffffffffffffffffffff1681526020015f81526020015f81526020015f6002811115611f5e57611f5d61208c565b5b81526020015f81525090565b60405180606001604052805f73ffffffffffffffffffffffffffffffffffffffff1681526020015f81526020015f81525090565b5f80fd5b5f819050919050565b611fb481611fa2565b8114611fbe575f80fd5b50565b5f81359050611fcf81611fab565b92915050565b5f8060408385031215611feb57611fea611f9e565b5b5f611ff885828601611fc1565b925050602061200985828601611fc1565b9150509250929050565b5f6020828403121561202857612027611f9e565b5b5f61203584828501611fc1565b91505092915050565b5f73ffffffffffffffffffffffffffffffffffffffff82169050919050565b5f6120678261203e565b9050919050565b6120778161205d565b82525050565b61208681611fa2565b82525050565b7f4e487b71000000000000000000000000000000000000000000000000000000005f52602160045260245ffd5b600381106120ca576120c961208c565b5b50565b5f8190506120da826120b9565b919050565b5f6120e9826120cd565b9050919050565b6120f9816120df565b82525050565b5f60c0820190506121125f83018961206e565b61211f602083018861206e565b61212c604083018761207d565b612139606083018661207d565b61214660808301856120f0565b61215360a083018461207d565b979650505050505050565b6121678161205d565b82525050565b61217681611fa2565b82525050565b612185816120df565b82525050565b60c082015f82015161219f5f85018261215e565b5060208201516121b2602085018261215e565b5060408201516121c5604085018261216d565b5060608201516121d8606085018261216d565b5060808201516121eb608085018261217c565b5060a08201516121fe60a085018261216d565b50505050565b5f60c0820190506122175f83018461218b565b92915050565b6122268161205d565b8114612230575f80fd5b50565b5f813590506122418161221d565b92915050565b5f806040838503121561225d5761225c611f9e565b5b5f61226a85828601612233565b925050602061227b85828601611fc1565b9150509250929050565b5f6020828403121561229a57612299611f9e565b5b5f6122a784828501612233565b91505092915050565b5f8115159050919050565b6122c4816122b0565b82525050565b5f6060820190506122dd5f83018661207d565b6122ea602083018561207d565b6122f760408301846122bb565b949350505050565b5f6020820190506123125f83018461207d565b92915050565b5f81519050919050565b5f82825260208201905092915050565b5f819050602082019050919050565b606082015f8201516123555f85018261215e565b506020820151612368602085018261216d565b50604082015161237b604085018261216d565b50505050565b5f61238c8383612341565b60608301905092915050565b5f602082019050919050565b5f6123ae82612318565b6123b88185612322565b93506123c383612332565b805f5b838110156123f35781516123da8882612381565b97506123e583612398565b9250506001810190506123c6565b5085935050505092915050565b5f6020820190508181035f83015261241881846123a4565b905092915050565b5f6020820190506124335f83018461206e565b92915050565b5f819050919050565b5f61245c6124576124528461203e565b612439565b61203e565b9050919050565b5f61246d82612442565b9050919050565b5f61247e82612463565b9050919050565b61248e81612474565b82525050565b5f6020820190506124a75f830184612485565b92915050565b5f82825260208201905092915050565b7f456e657267794d61726b65743a206e6f742061207265676973746572656420705f8201527f726f647563657200000000000000000000000000000000000000000000000000602082015250565b5f6125176027836124ad565b9150612522826124bd565b604082019050919050565b5f6020820190508181035f8301526125448161250b565b9050919050565b7f456e657267794d61726b65743a207072696365206d757374206265203e2030005f82015250565b5f61257f601f836124ad565b915061258a8261254b565b602082019050919050565b5f6020820190508181035f8301526125ac81612573565b9050919050565b5f6040820190506125c65f83018561207d565b6125d3602083018461207d565b9392505050565b7f456e657267794d61726b65743a207472616465206e6f742070656e64696e67005f82015250565b5f61260e601f836124ad565b9150612619826125da565b602082019050919050565b5f6020820190508181035f83015261263b81612602565b9050919050565b7f456e657267794d61726b65743a206e6f7420617574686f72697a6564000000005f82015250565b5f612676601c836124ad565b915061268182612642565b602082019050919050565b5f6020820190508181035f8301526126a38161266a565b9050919050565b7f4e487b71000000000000000000000000000000000000000000000000000000005f52601160045260245ffd5b5f6126e182611fa2565b91506126ec83611fa2565b9250828201905080821115612704576127036126aa565b5b92915050565b5f81905092915050565b50565b5f6127225f8361270a565b915061272d82612714565b5f82019050919050565b5f61274182612717565b9150819050919050565b7f456e657267794d61726b65743a20726566756e64206661696c656400000000005f82015250565b5f61277f601b836124ad565b915061278a8261274b565b602082019050919050565b5f6020820190508181035f8301526127ac81612773565b9050919050565b7f456e657267794d61726b65743a20747261646520646f6573206e6f74206578695f8201527f7374000000000000000000000000000000000000000000000000000000000000602082015250565b5f61280d6022836124ad565b9150612818826127b3565b604082019050919050565b5f6020820190508181035f83015261283a81612801565b9050919050565b7f456e657267794d61726b65743a206b7768206d757374206265203e20300000005f82015250565b5f612875601d836124ad565b915061288082612841565b602082019050919050565b5f6020820190508181035f8301526128a281612869565b9050919050565b7f456e657267794d61726b65743a2063616e6e6f74206275792066726f6d20796f5f8201527f757273656c660000000000000000000000000000000000000000000000000000602082015250565b5f6129036026836124ad565b915061290e826128a9565b604082019050919050565b5f6020820190508181035f830152612930816128f7565b9050919050565b7f456e657267794d61726b65743a2073656c6c6572206e6f7420616374697665005f82015250565b5f61296b601f836124ad565b915061297682612937565b602082019050919050565b5f6020820190508181035f8301526129988161295f565b9050919050565b7f456e657267794d61726b65743a20696e73756666696369656e74206b576820735f8201527f746f636b00000000000000000000000000000000000000000000000000000000602082015250565b5f6129f96024836124ad565b9150612a048261299f565b604082019050919050565b5f6020820190508181035f830152612a26816129ed565b9050919050565b5f612a3782611fa2565b9150612a4283611fa2565b9250828202612a5081611fa2565b91508282048414831517612a6757612a666126aa565b5b5092915050565b7f4e487b71000000000000000000000000000000000000000000000000000000005f52601260045260245ffd5b5f612aa582611fa2565b9150612ab083611fa2565b925082612ac057612abf612a6e565b5b828204905092915050565b7f456e657267794d61726b65743a20696e636f7272656374204d4f4e20616d6f755f8201527f6e74000000000000000000000000000000000000000000000000000000000000602082015250565b5f612b256022836124ad565b9150612b3082612acb565b604082019050919050565b5f6020820190508181035f830152612b5281612b19565b9050919050565b5f612b6382611fa2565b9150612b6e83611fa2565b9250828203905081811115612b8657612b856126aa565b5b92915050565b5f612b9682611fa2565b91507fffffffffffffffffffffffffffffffffffffffffffffffffffffffffffffffff8203612bc857612bc76126aa565b5b600182019050919050565b7f456e657267794d61726b65743a206b5768206d757374206265203e20300000005f82015250565b5f612c07601d836124ad565b9150612c1282612bd3565b602082019050919050565b5f6020820190508181035f830152612c3481612bfb565b9050919050565b7f4e487b71000000000000000000000000000000000000000000000000000000005f52603260045260245ffd5b7f4e487b71000000000000000000000000000000000000000000000000000000005f52604160045260245ffd5b5f60c082019050612ca85f83018961206e565b612cb5602083018861206e565b612cc2604083018761207d565b612ccf606083018661207d565b612cdc608083018561207d565b612ce960a083018461207d565b979650505050505050565b5f81519050612d0281611fab565b92915050565b5f60208284031215612d1d57612d1c611f9e565b5b5f612d2a84828501612cf4565b91505092915050565b7f456e657267794d61726b65743a204d4f4e207472616e73666572206661696c655f8201527f6400000000000000000000000000000000000000000000000000000000000000602082015250565b5f612d8d6021836124ad565b9150612d9882612d33565b604082019050919050565b5f6020820190508181035f830152612dba81612d81565b905091905056fea2646970667358221220c3fa0922c31a4c9d1aa17037852412ed7ab8fb8a9588142fd7b311385df4af3b64736f6c63430008180033","linkReferences":{}},"methodIdentifiers":{"buyEnergy(address,uint256)":"36fd7e1b","cancelTrade(uint256)":"09ec6cc7","confirmDelivery(uint256)":"fd84cb97","deactivateListing()":"6cae5dff","getActiveListings()":"87c35bc0","getTrade(uint256)":"2db25e05","listings(address)":"65d96c82","owner()":"8da5cb5b","quoteEnergy(address,uint256)":"f08379be","receipt()":"e1e6b898","registerProducer(uint256,uint256)":"4821b367","renounceOwnership()":"715018a6","totalTrades()":"e275c997","tradeCounter()":"660d15b5","trades(uint256)":"1e6c598e","transferOwnership(address)":"f2fde38b","updateListing(uint256,uint256)":"0179ea88"},"id":37}