{"abi":[{"type":"constructor","inputs":[],"stateMutability":"nonpayable"},{"type":"function","name":"approve","inputs":[{"name":"to","type":"address","internalType":"address"},{"name":"tokenId","type":"uint256","internalType":"uint256"}],"outputs":[],"stateMutability":"nonpayable"},{"type":"function","name":"balanceOf","inputs":[{"name":"owner","type":"address","internalType":"address"}],"outputs":[{"name":"","type":"uint256","internalType":"uint256"}],"stateMutability":"view"},{"type":"function","name":"energyMarket","inputs":[],"outputs":[{"name":"","type":"address","internalType":"address"}],"stateMutability":"view"},{"type":"function","name":"getApproved","inputs":[{"name":"tokenId","type":"uint256","internalType":"uint256"}],"outputs":[{"name":"","type":"address","internalType":"address"}],"stateMutability":"view"},{"type":"function","name":"getReceipt","inputs":[{"name":"tokenId","type":"uint256","internalType":"uint256"}],"outputs":[{"name":"","type":"tuple","internalType":"struct EnergyReceipt.ReceiptData","components":[{"name":"seller","type":"address","internalType":"address"},{"name":"buyer","type":"address","internalType":"address"},{"name":"kwh","type":"uint256","internalType":"uint256"},{"name":"amount","type":"uint256","internalType":"uint256"},{"name":"tradeId","type":"uint256","internalType":"uint256"},{"name":"timestamp","type":"uint256","internalType":"uint256"}]}],"stateMutability":"view"},{"type":"function","name":"isApprovedForAll","inputs":[{"name":"owner","type":"address","internalType":"address"},{"name":"operator","type":"address","internalType":"address"}],"outputs":[{"name":"","type":"bool","internalType":"bool"}],"stateMutability":"view"},{"type":"function","name":"mintReceipt","inputs":[{"name":"buyer","type":"address","internalType":"address"},{"name":"seller","type":"address","internalType":"address"},{"name":"kwh","type":"uint256","internalType":"uint256"},{"name":"amount","type":"uint256","internalType":"uint256"},{"name":"tradeId","type":"uint256","internalType":"uint256"},{"name":"timestamp","type":"uint256","internalType":"uint256"}],"outputs":[{"name":"tokenId","type":"uint256","internalType":"uint256"}],"stateMutability":"nonpayable"},{"type":"function","name":"name","inputs":[],"outputs":[{"name":"","type":"string","internalType":"string"}],"stateMutability":"view"},{"type":"function","name":"owner","inputs":[],"outputs":[{"name":"","type":"address","internalType":"address"}],"stateMutability":"view"},{"type":"function","name":"ownerOf","inputs":[{"name":"tokenId","type":"uint256","internalType":"uint256"}],"outputs":[{"name":"","type":"address","internalType":"address"}],"stateMutability":"view"},{"type":"function","name":"renounceOwnership","inputs":[],"outputs":[],"stateMutability":"nonpayable"},{"type":"function","name":"safeTransferFrom","inputs":[{"name":"from","type":"address","internalType":"address"},{"name":"to","type":"address","internalType":"address"},{"name":"tokenId","type":"uint256","internalType":"uint256"}],"outputs":[],"stateMutability":"nonpayable"},{"type":"function","name":"safeTransferFrom","inputs":[{"name":"from","type":"address","internalType":"address"},{"name":"to","type":"address","internalType":"address"},{"name":"tokenId","type":"uint256","internalType":"uint256"},{"name":"data","type":"bytes","internalType":"bytes"}],"outputs":[],"stateMutability":"nonpayable"},{"type":"function","name":"setApprovalForAll","inputs":[{"name":"operator","type":"address","internalType":"address"},{"name":"approved","type":"bool","internalType":"bool"}],"outputs":[],"stateMutability":"nonpayable"},{"type":"function","name":"setEnergyMarket","inputs":[{"name":"_market","type":"address","internalType":"address"}],"outputs":[],"stateMutability":"nonpayable"},{"type":"function","name":"supportsInterface","inputs":[{"name":"interfaceId","type":"bytes4","internalType":"bytes4"}],"outputs":[{"name":"","type":"bool","internalType":"bool"}],"stateMutability":"view"},{"type":"function","name":"symbol","inputs":[],"outputs":[{"name":"","type":"string","internalType":"string"}],"stateMutability":"view"},{"type":"function","name":"tokenURI","inputs":[{"name":"tokenId","type":"uint256","internalType":"uint256"}],"outputs":[{"name":"","type":"string","internalType":"string"}],"stateMutability":"view"},{"type":"function","name":"transferFrom","inputs":[{"name":"from","type":"address","internalType":"address"},{"name":"to","type":"address","internalType":"address"},{"name":"tokenId","type":"uint256","internalType":"uint256"}],"outputs":[],"stateMutability":"nonpayable"},{"type":"function","name":"transferOwnership","inputs":[{"name":"newOwner","type":"address","internalType":"address"}],"outputs":[],"stateMutability":"nonpayable"},{"type":"event","name":"Approval","inputs":[{"name":"owner","type":"address","indexed":true,"internalType":"address"},{"name":"approved","type":"address","indexed":true,"internalType":"address"},{"name":"tokenId","type":"uint256","indexed":true,"internalType":"uint256"}],"anonymous":false},{"type":"event","name":"ApprovalForAll","inputs":[{"name":"owner","type":"address","indexed":true,"internalType":"address"},{"name":"operator","type":"address","indexed":true,"internalType":"address"},{"name":"approved","type":"bool","indexed":false,"internalType":"bool"}],"anonymous":false},{"type":"event","name":"OwnershipTransferred","inputs":[{"name":"previousOwner","type":"address","indexed":true,"internalType":"address"},{"name":"newOwner","type":"address","indexed":true,"internalType":"address"}],"anonymous":false},{"type":"event","name":"ReceiptMinted","inputs":[{"name":"tokenId","type":"uint256","indexed":true,"internalType":"uint256"},{"name":"buyer","type":"address","indexed":true,"internalType":"address"},{"name":"tradeId","type":"uint256","indexed":true,"internalType":"uint256"}],"anonymous":false},{"type":"event","name":"Transfer","inputs":[{"name":"from","type":"address","indexed":true,"internalType":"address"},{"name":"to","type":"address","indexed":true,"internalType":"address"},{"name":"tokenId","type":"uint256","indexed":true,"internalType":"uint256"}],"anonymous":false},{"type":"error","name":"ERC721IncorrectOwner","inputs":[{"name":"sender","type":"address","internalType":"address"},{"name":"tokenId","type":"uint256","internalType":"uint256"},{"name":"owner","type":"address","internalType":"address"}]},{"type":"error","name":"ERC721InsufficientApproval","inputs":[{"name":"operator","type":"address","internalType":"address"},{"name":"tokenId","type":"uint256","internalType":"uint256"}]},{"type":"error","name":"ERC721InvalidApprover","inputs":[{"name":"approver","type":"address","internalType":"address"}]},{"type":"error","name":"ERC721InvalidOperator","inputs":[{"name":"operator","type":"address","internalType":"address"}]},{"type":"error","name":"ERC721InvalidOwner","inputs":[{"name":"owner","type":"address","internalType":"address"}]},{"type":"error","name":"ERC721InvalidReceiver","inputs":[{"name":"receiver","type":"address","internalType":"address"}]},{"type":"error","name":"ERC721InvalidSender","inputs":[{"name":"sender","type":"address","internalType":"address"}]},{"type":"error","name":"ERC721NonexistentToken","inputs":[{"name":"tokenId","type":"uint256","internalType":"uint256"}]},{"type":"error","name":"OwnableInvalidOwner","inputs":[{"name":"owner","type":"address","internalType":"address"}]},{"type":"error","name":"OwnableUnauthorizedAccount","inputs":[{"name":"account","type":"address","internalType":"address"}]}],"bytecode":{"object":"0x608060405234801562000010575f80fd5b50336040518060400160405280601881526020017f57617474436861696e20456e65726779205265636569707400000000000000008152506040518060400160405280600481526020017f5741545400000000000000000000000000000000000000000000000000000000815250815f90816200008e919062000455565b508060019081620000a0919062000455565b5050505f73ffffffffffffffffffffffffffffffffffffffff168173ffffffffffffffffffffffffffffffffffffffff160362000116575f6040517f1e4fbdf70000000000000000000000000000000000000000000000000000000081526004016200010d91906200057c565b60405180910390fd5b62000127816200012e60201b60201c565b5062000597565b5f60065f9054906101000a900473ffffffffffffffffffffffffffffffffffffffff1690508160065f6101000a81548173ffffffffffffffffffffffffffffffffffffffff021916908373ffffffffffffffffffffffffffffffffffffffff1602179055508173ffffffffffffffffffffffffffffffffffffffff168173ffffffffffffffffffffffffffffffffffffffff167f8be0079c531659141344cd1fd0a4f28419497f9722a3daafe3b4186f6b6457e060405160405180910390a35050565b5f81519050919050565b7f4e487b71000000000000000000000000000000000000000000000000000000005f52604160045260245ffd5b7f4e487b71000000000000000000000000000000000000000000000000000000005f52602260045260245ffd5b5f60028204905060018216806200026d57607f821691505b60208210810362000283576200028262000228565b5b50919050565b5f819050815f5260205f209050919050565b5f6020601f8301049050919050565b5f82821b905092915050565b5f60088302620002e77fffffffffffffffffffffffffffffffffffffffffffffffffffffffffffffffff82620002aa565b620002f38683620002aa565b95508019841693508086168417925050509392505050565b5f819050919050565b5f819050919050565b5f6200033d6200033762000331846200030b565b62000314565b6200030b565b9050919050565b5f819050919050565b62000358836200031d565b62000370620003678262000344565b848454620002b6565b825550505050565b5f90565b6200038662000378565b620003938184846200034d565b505050565b5b81811015620003ba57620003ae5f826200037c565b60018101905062000399565b5050565b601f8211156200040957620003d38162000289565b620003de846200029b565b81016020851015620003ee578190505b62000406620003fd856200029b565b83018262000398565b50505b505050565b5f82821c905092915050565b5f6200042b5f19846008026200040e565b1980831691505092915050565b5f6200044583836200041a565b9150826002028217905092915050565b6200046082620001f1565b67ffffffffffffffff8111156200047c576200047b620001fb565b5b62000488825462000255565b62000495828285620003be565b5f60209050601f831160018114620004cb575f8415620004b6578287015190505b620004c2858262000438565b86555062000531565b601f198416620004db8662000289565b5f5b828110156200050457848901518255600182019150602085019450602081019050620004dd565b8683101562000524578489015162000520601f8916826200041a565b8355505b6001600288020188555050505b505050505050565b5f73ffffffffffffffffffffffffffffffffffffffff82169050919050565b5f620005648262000539565b9050919050565b620005768162000558565b82525050565b5f602082019050620005915f8301846200056b565b92915050565b6145ef80620005a55f395ff3fe608060405234801561000f575f80fd5b506004361061012a575f3560e01c806389c16bd1116100ab578063b63e6ac31161006f578063b63e6ac31461032c578063b88d4fde1461035c578063c87b56dd14610378578063e985e9c5146103a8578063f2fde38b146103d85761012a565b806389c16bd11461029a5780638da5cb5b146102b657806395d89b41146102d4578063a22cb465146102f2578063b0a9fded1461030e5761012a565b80633b5a8255116100f25780633b5a8255146101e457806342842e0e146102145780636352211e1461023057806370a0823114610260578063715018a6146102905761012a565b806301ffc9a71461012e57806306fdde031461015e578063081812fc1461017c578063095ea7b3146101ac57806323b872dd146101c8575b5f80fd5b61014860048036038101906101439190612d77565b6103f4565b6040516101559190612dbc565b60405180910390f35b6101666104d5565b6040516101739190612e5f565b60405180910390f35b61019660048036038101906101919190612eb2565b610564565b6040516101a39190612f1c565b60405180910390f35b6101c660048036038101906101c19190612f5f565b61057f565b005b6101e260048036038101906101dd9190612f9d565b610595565b005b6101fe60048036038101906101f99190612fed565b610694565b60405161020b9190613085565b60405180910390f35b61022e60048036038101906102299190612f9d565b6108b4565b005b61024a60048036038101906102459190612eb2565b6108d3565b6040516102579190612f1c565b60405180910390f35b61027a6004803603810190610275919061309e565b6108e4565b6040516102879190613085565b60405180910390f35b61029861099a565b005b6102b460048036038101906102af919061309e565b6109ad565b005b6102be610a66565b6040516102cb9190612f1c565b60405180910390f35b6102dc610a8e565b6040516102e99190612e5f565b60405180910390f35b61030c600480360381019061030791906130f3565b610b1e565b005b610316610b34565b6040516103239190612f1c565b60405180910390f35b61034660048036038101906103419190612eb2565b610b59565b60405161035391906131c8565b60405180910390f35b6103766004803603810190610371919061330d565b610ccb565b005b610392600480360381019061038d9190612eb2565b610cf0565b60405161039f9190612e5f565b60405180910390f35b6103c260048036038101906103bd919061338d565b610f08565b6040516103cf9190612dbc565b60405180910390f35b6103f260048036038101906103ed919061309e565b610f96565b005b5f7f80ac58cd000000000000000000000000000000000000000000000000000000007bffffffffffffffffffffffffffffffffffffffffffffffffffffffff1916827bffffffffffffffffffffffffffffffffffffffffffffffffffffffff191614806104be57507f5b5e139f000000000000000000000000000000000000000000000000000000007bffffffffffffffffffffffffffffffffffffffffffffffffffffffff1916827bffffffffffffffffffffffffffffffffffffffffffffffffffffffff1916145b806104ce57506104cd8261101a565b5b9050919050565b60605f80546104e3906133f8565b80601f016020809104026020016040519081016040528092919081815260200182805461050f906133f8565b801561055a5780601f106105315761010080835404028352916020019161055a565b820191905f5260205f20905b81548152906001019060200180831161053d57829003601f168201915b5050505050905090565b5f61056e82611083565b5061057882611109565b9050919050565b610591828261058c611142565b611149565b5050565b5f73ffffffffffffffffffffffffffffffffffffffff168273ffffffffffffffffffffffffffffffffffffffff1603610605575f6040517f64a0ae920000000000000000000000000000000000000000000000000000000081526004016105fc9190612f1c565b60405180910390fd5b5f6106188383610613611142565b61115b565b90508373ffffffffffffffffffffffffffffffffffffffff168173ffffffffffffffffffffffffffffffffffffffff161461068e578382826040517f64283d7b00000000000000000000000000000000000000000000000000000000815260040161068593929190613428565b60405180910390fd5b50505050565b5f60075f9054906101000a900473ffffffffffffffffffffffffffffffffffffffff1673ffffffffffffffffffffffffffffffffffffffff163373ffffffffffffffffffffffffffffffffffffffff1614610724576040517f08c379a000000000000000000000000000000000000000000000000000000000815260040161071b906134cd565b60405180910390fd5b60085f81548092919061073690613518565b9190505590506040518060c001604052808773ffffffffffffffffffffffffffffffffffffffff1681526020018873ffffffffffffffffffffffffffffffffffffffff1681526020018681526020018581526020018481526020018381525060095f8381526020019081526020015f205f820151815f015f6101000a81548173ffffffffffffffffffffffffffffffffffffffff021916908373ffffffffffffffffffffffffffffffffffffffff1602179055506020820151816001015f6101000a81548173ffffffffffffffffffffffffffffffffffffffff021916908373ffffffffffffffffffffffffffffffffffffffff16021790555060408201518160020155606082015181600301556080820151816004015560a082015181600501559050506108658782611366565b828773ffffffffffffffffffffffffffffffffffffffff16827f3c411ec189ba4fe4396832c91b79e00de004de7ee8de4039111c6761bef1fea560405160405180910390a49695505050505050565b6108ce83838360405180602001604052805f815250610ccb565b505050565b5f6108dd82611083565b9050919050565b5f8073ffffffffffffffffffffffffffffffffffffffff168273ffffffffffffffffffffffffffffffffffffffff1603610955575f6040517f89c62b6400000000000000000000000000000000000000000000000000000000815260040161094c9190612f1c565b60405180910390fd5b60035f8373ffffffffffffffffffffffffffffffffffffffff1673ffffffffffffffffffffffffffffffffffffffff1681526020019081526020015f20549050919050565b6109a2611383565b6109ab5f61140a565b565b6109b5611383565b5f73ffffffffffffffffffffffffffffffffffffffff168173ffffffffffffffffffffffffffffffffffffffff1603610a23576040517f08c379a0000000000000000000000000000000000000000000000000000000008152600401610a1a906135a9565b60405180910390fd5b8060075f6101000a81548173ffffffffffffffffffffffffffffffffffffffff021916908373ffffffffffffffffffffffffffffffffffffffff16021790555050565b5f60065f9054906101000a900473ffffffffffffffffffffffffffffffffffffffff16905090565b606060018054610a9d906133f8565b80601f0160208091040260200160405190810160405280929190818152602001828054610ac9906133f8565b8015610b145780601f10610aeb57610100808354040283529160200191610b14565b820191905f5260205f20905b815481529060010190602001808311610af757829003601f168201915b5050505050905090565b610b30610b29611142565b83836114cd565b5050565b60075f9054906101000a900473ffffffffffffffffffffffffffffffffffffffff1681565b610b61612cb5565b5f73ffffffffffffffffffffffffffffffffffffffff16610b81836108d3565b73ffffffffffffffffffffffffffffffffffffffff1603610bd7576040517f08c379a0000000000000000000000000000000000000000000000000000000008152600401610bce90613637565b60405180910390fd5b60095f8381526020019081526020015f206040518060c00160405290815f82015f9054906101000a900473ffffffffffffffffffffffffffffffffffffffff1673ffffffffffffffffffffffffffffffffffffffff1673ffffffffffffffffffffffffffffffffffffffff168152602001600182015f9054906101000a900473ffffffffffffffffffffffffffffffffffffffff1673ffffffffffffffffffffffffffffffffffffffff1673ffffffffffffffffffffffffffffffffffffffff1681526020016002820154815260200160038201548152602001600482015481526020016005820154815250509050919050565b610cd6848484610595565b610cea610ce1611142565b858585856116a6565b50505050565b60605f73ffffffffffffffffffffffffffffffffffffffff16610d12836108d3565b73ffffffffffffffffffffffffffffffffffffffff1603610d68576040517f08c379a0000000000000000000000000000000000000000000000000000000008152600401610d5f90613637565b60405180910390fd5b5f60095f8481526020019081526020015f206040518060c00160405290815f82015f9054906101000a900473ffffffffffffffffffffffffffffffffffffffff1673ffffffffffffffffffffffffffffffffffffffff1673ffffffffffffffffffffffffffffffffffffffff168152602001600182015f9054906101000a900473ffffffffffffffffffffffffffffffffffffffff1673ffffffffffffffffffffffffffffffffffffffff1673ffffffffffffffffffffffffffffffffffffffff16815260200160028201548152602001600382015481526020016004820154815260200160058201548152505090505f610e6282611852565b90505f610e6e85611a9f565b610e7783611bf7565b610e97670de0b6b3a76400008660400151610e929190613682565b611a9f565b610ea48660800151611a9f565b610eb18760a00151611a9f565b604051602001610ec5959493929190613ab2565b6040516020818303038152906040529050610edf81611bf7565b604051602001610eef9190613bd5565b6040516020818303038152906040529350505050919050565b5f60055f8473ffffffffffffffffffffffffffffffffffffffff1673ffffffffffffffffffffffffffffffffffffffff1681526020019081526020015f205f8373ffffffffffffffffffffffffffffffffffffffff1673ffffffffffffffffffffffffffffffffffffffff1681526020019081526020015f205f9054906101000a900460ff16905092915050565b610f9e611383565b5f73ffffffffffffffffffffffffffffffffffffffff168173ffffffffffffffffffffffffffffffffffffffff160361100e575f6040517f1e4fbdf70000000000000000000000000000000000000000000000000000000081526004016110059190612f1c565b60405180910390fd5b6110178161140a565b50565b5f7f01ffc9a7000000000000000000000000000000000000000000000000000000007bffffffffffffffffffffffffffffffffffffffffffffffffffffffff1916827bffffffffffffffffffffffffffffffffffffffffffffffffffffffff1916149050919050565b5f8061108e8361236c565b90505f73ffffffffffffffffffffffffffffffffffffffff168173ffffffffffffffffffffffffffffffffffffffff160361110057826040517f7e2732890000000000000000000000000000000000000000000000000000000081526004016110f79190613085565b60405180910390fd5b80915050919050565b5f60045f8381526020019081526020015f205f9054906101000a900473ffffffffffffffffffffffffffffffffffffffff169050919050565b5f33905090565b61115683838360016123a5565b505050565b5f806111668461236c565b90505f73ffffffffffffffffffffffffffffffffffffffff168373ffffffffffffffffffffffffffffffffffffffff16146111a7576111a6818486612564565b5b5f73ffffffffffffffffffffffffffffffffffffffff168173ffffffffffffffffffffffffffffffffffffffff1614611232576111e65f855f806123a5565b600160035f8373ffffffffffffffffffffffffffffffffffffffff1673ffffffffffffffffffffffffffffffffffffffff1681526020019081526020015f205f82825403925050819055505b5f73ffffffffffffffffffffffffffffffffffffffff168573ffffffffffffffffffffffffffffffffffffffff16146112b157600160035f8773ffffffffffffffffffffffffffffffffffffffff1673ffffffffffffffffffffffffffffffffffffffff1681526020019081526020015f205f82825401925050819055505b8460025f8681526020019081526020015f205f6101000a81548173ffffffffffffffffffffffffffffffffffffffff021916908373ffffffffffffffffffffffffffffffffffffffff160217905550838573ffffffffffffffffffffffffffffffffffffffff168273ffffffffffffffffffffffffffffffffffffffff167fddf252ad1be2c89b69c2b068fc378daa952ba7f163c4a11628f55a4df523b3ef60405160405180910390a4809150509392505050565b61137f828260405180602001604052805f815250612627565b5050565b61138b611142565b73ffffffffffffffffffffffffffffffffffffffff166113a9610a66565b73ffffffffffffffffffffffffffffffffffffffff1614611408576113cc611142565b6040517f118cdaa70000000000000000000000000000000000000000000000000000000081526004016113ff9190612f1c565b60405180910390fd5b565b5f60065f9054906101000a900473ffffffffffffffffffffffffffffffffffffffff1690508160065f6101000a81548173ffffffffffffffffffffffffffffffffffffffff021916908373ffffffffffffffffffffffffffffffffffffffff1602179055508173ffffffffffffffffffffffffffffffffffffffff168173ffffffffffffffffffffffffffffffffffffffff167f8be0079c531659141344cd1fd0a4f28419497f9722a3daafe3b4186f6b6457e060405160405180910390a35050565b5f73ffffffffffffffffffffffffffffffffffffffff168373ffffffffffffffffffffffffffffffffffffffff160361153d575f6040517fa9fbf51f0000000000000000000000000000000000000000000000000000000081526004016115349190612f1c565b60405180910390fd5b5f73ffffffffffffffffffffffffffffffffffffffff168273ffffffffffffffffffffffffffffffffffffffff16036115ad57816040517f5b08ba180000000000000000000000000000000000000000000000000000000081526004016115a49190612f1c565b60405180910390fd5b8060055f8573ffffffffffffffffffffffffffffffffffffffff1673ffffffffffffffffffffffffffffffffffffffff1681526020019081526020015f205f8473ffffffffffffffffffffffffffffffffffffffff1673ffffffffffffffffffffffffffffffffffffffff1681526020019081526020015f205f6101000a81548160ff0219169083151502179055508173ffffffffffffffffffffffffffffffffffffffff168373ffffffffffffffffffffffffffffffffffffffff167f17307eab39ab6107e8899845ad3d59bd9653f200f220920489ca2b5937696c31836040516116999190612dbc565b60405180910390a3505050565b5f8373ffffffffffffffffffffffffffffffffffffffff163b111561184b578273ffffffffffffffffffffffffffffffffffffffff1663150b7a02868685856040518563ffffffff1660e01b81526004016117049493929190613c48565b6020604051808303815f875af192505050801561173f57506040513d601f19601f8201168201806040525081019061173c9190613ca6565b60015b6117c0573d805f811461176d576040519150601f19603f3d011682016040523d82523d5f602084013e611772565b606091505b505f8151036117b857836040517f64a0ae920000000000000000000000000000000000000000000000000000000081526004016117af9190612f1c565b60405180910390fd5b805160208201fd5b63150b7a0260e01b7bffffffffffffffffffffffffffffffffffffffffffffffffffffffff1916817bffffffffffffffffffffffffffffffffffffffffffffffffffffffff19161461184957836040517f64a0ae920000000000000000000000000000000000000000000000000000000081526004016118409190612f1c565b60405180910390fd5b505b5050505050565b60606118a1606c6040518060400160405280600881526020017f547261646520494400000000000000000000000000000000000000000000000081525061189c8560800151611a9f565b61264a565b61192060886040518060400160405280600681526020017f456e6572677900000000000000000000000000000000000000000000000000008152506118fc670de0b6b3a764000087604001516118f79190613682565b611a9f565b60405160200161190c9190613d1b565b60405160208183030381529060405261264a565b61199e60a46040518060400160405280600681526020017f416d6f756e74000000000000000000000000000000000000000000000000000081525061197a66038d7ea4c6800088606001516119759190613682565b611a9f565b60405160200161198a9190613d86565b60405160208183030381529060405261264a565b6119e260c06040518060400160405280600681526020017f53656c6c65720000000000000000000000000000000000000000000000000000815250875f015161268b565b611a2760dc6040518060400160405280600581526020017f4275796572000000000000000000000000000000000000000000000000000000815250886020015161268b565b611a7460f86040518060400160405280600481526020017f54696d6500000000000000000000000000000000000000000000000000000000815250611a6f8a60a00151611a9f565b61264a565b604051602001611a8996959493929190614177565b6040516020818303038152906040529050919050565b60605f8203611ae5576040518060400160405280600181526020017f30000000000000000000000000000000000000000000000000000000000000008152509050611bf2565b5f8290505f5b5f8214611b14578080611afd90613518565b915050600a82611b0d9190613682565b9150611aeb565b5f8167ffffffffffffffff811115611b2f57611b2e6131e9565b5b6040519080825280601f01601f191660200182016040528015611b615781602001600182028036833780820191505090505b5090505b5f8514611beb578180611b7790614210565b925050600a85611b879190614237565b6030611b939190614267565b60f81b818381518110611ba957611ba861429a565b5b60200101907effffffffffffffffffffffffffffffffffffffffffffffffffffffffffffff191690815f1a905350600a85611be49190613682565b9450611b65565b8093505050505b919050565b60605f60405180606001604052806040815260200161457a6040913990505f600360028551611c269190614267565b611c309190613682565b6004611c3c91906142c7565b90505f8167ffffffffffffffff811115611c5957611c586131e9565b5b6040519080825280601f01601f191660200182016040528015611c8b5781602001600182028036833780820191505090505b5090505f805b8651600383611ca09190614267565b11611f1f575f878381518110611cb957611cb861429a565b5b602001015160f81c60f81b60f81c60ff1690505f88600185611cdb9190614267565b81518110611cec57611ceb61429a565b5b602001015160f81c60f81b60f81c60ff1690505f89600286611d0e9190614267565b81518110611d1f57611d1e61429a565b5b602001015160f81c60f81b60f81c60ff16905087603f600285901c1681518110611d4c57611d4b61429a565b5b602001015160f81c60f81b868580611d6390613518565b965081518110611d7657611d7561429a565b5b60200101907effffffffffffffffffffffffffffffffffffffffffffffffffffffffffffff191690815f1a90535087600f600484901c16600460038616901b1781518110611dc757611dc661429a565b5b602001015160f81c60f81b868580611dde90613518565b965081518110611df157611df061429a565b5b60200101907effffffffffffffffffffffffffffffffffffffffffffffffffffffffffffff191690815f1a905350876003600683901c166002600f8516901b1781518110611e4257611e4161429a565b5b602001015160f81c60f81b868580611e5990613518565b965081518110611e6c57611e6b61429a565b5b60200101907effffffffffffffffffffffffffffffffffffffffffffffffffffffffffffff191690815f1a90535087603f821681518110611eb057611eaf61429a565b5b602001015160f81c60f81b868580611ec790613518565b965081518110611eda57611ed961429a565b5b60200101907effffffffffffffffffffffffffffffffffffffffffffffffffffffffffffff191690815f1a905350505050600382611f189190614267565b9150611c91565b6001828851611f2e9190614308565b03612120575f878381518110611f4757611f4661429a565b5b602001015160f81c60f81b60f81c60ff16905085603f600283901c1681518110611f7457611f7361429a565b5b602001015160f81c60f81b848380611f8b90613518565b945081518110611f9e57611f9d61429a565b5b60200101907effffffffffffffffffffffffffffffffffffffffffffffffffffffffffffff191690815f1a90535085600460038316901b81518110611fe657611fe561429a565b5b602001015160f81c60f81b848380611ffd90613518565b9450815181106120105761200f61429a565b5b60200101907effffffffffffffffffffffffffffffffffffffffffffffffffffffffffffff191690815f1a9053507f3d0000000000000000000000000000000000000000000000000000000000000084838061206b90613518565b94508151811061207e5761207d61429a565b5b60200101907effffffffffffffffffffffffffffffffffffffffffffffffffffffffffffff191690815f1a9053507f3d000000000000000000000000000000000000000000000000000000000000008483806120d990613518565b9450815181106120ec576120eb61429a565b5b60200101907effffffffffffffffffffffffffffffffffffffffffffffffffffffffffffff191690815f1a9053505061235f565b600282885161212f9190614308565b0361235e575f8783815181106121485761214761429a565b5b602001015160f81c60f81b60f81c60ff1690505f8860018561216a9190614267565b8151811061217b5761217a61429a565b5b602001015160f81c60f81b60f81c60ff16905086603f600284901c16815181106121a8576121a761429a565b5b602001015160f81c60f81b8584806121bf90613518565b9550815181106121d2576121d161429a565b5b60200101907effffffffffffffffffffffffffffffffffffffffffffffffffffffffffffff191690815f1a90535086600f600483901c16600460038516901b17815181106122235761222261429a565b5b602001015160f81c60f81b85848061223a90613518565b95508151811061224d5761224c61429a565b5b60200101907effffffffffffffffffffffffffffffffffffffffffffffffffffffffffffff191690815f1a905350866002600f8316901b815181106122955761229461429a565b5b602001015160f81c60f81b8584806122ac90613518565b9550815181106122bf576122be61429a565b5b60200101907effffffffffffffffffffffffffffffffffffffffffffffffffffffffffffff191690815f1a9053507f3d0000000000000000000000000000000000000000000000000000000000000085848061231a90613518565b95508151811061232d5761232c61429a565b5b60200101907effffffffffffffffffffffffffffffffffffffffffffffffffffffffffffff191690815f1a90535050505b5b8295505050505050919050565b5f60025f8381526020019081526020015f205f9054906101000a900473ffffffffffffffffffffffffffffffffffffffff169050919050565b80806123dd57505f73ffffffffffffffffffffffffffffffffffffffff168273ffffffffffffffffffffffffffffffffffffffff1614155b1561250f575f6123ec84611083565b90505f73ffffffffffffffffffffffffffffffffffffffff168373ffffffffffffffffffffffffffffffffffffffff161415801561245657508273ffffffffffffffffffffffffffffffffffffffff168173ffffffffffffffffffffffffffffffffffffffff1614155b801561246957506124678184610f08565b155b156124ab57826040517fa9fbf51f0000000000000000000000000000000000000000000000000000000081526004016124a29190612f1c565b60405180910390fd5b811561250d57838573ffffffffffffffffffffffffffffffffffffffff168273ffffffffffffffffffffffffffffffffffffffff167f8c5be1e5ebec7d5bd14f71427d1e84f3dd0314c0f7b2291e5b200ac8c7c3b92560405160405180910390a45b505b8360045f8581526020019081526020015f205f6101000a81548173ffffffffffffffffffffffffffffffffffffffff021916908373ffffffffffffffffffffffffffffffffffffffff16021790555050505050565b61256f8383836126a9565b612622575f73ffffffffffffffffffffffffffffffffffffffff168373ffffffffffffffffffffffffffffffffffffffff16036125e357806040517f7e2732890000000000000000000000000000000000000000000000000000000081526004016125da9190613085565b60405180910390fd5b81816040517f177e802f00000000000000000000000000000000000000000000000000000000815260040161261992919061433b565b60405180910390fd5b505050565b6126318383612769565b61264561263c611142565b5f8585856116a6565b505050565b606061265584611a9f565b8361265f86611a9f565b8460405160200161267394939291906144fa565b60405160208183030381529060405290509392505050565b60606126a0848461269b8561285c565b61264a565b90509392505050565b5f8073ffffffffffffffffffffffffffffffffffffffff168373ffffffffffffffffffffffffffffffffffffffff161415801561276057508273ffffffffffffffffffffffffffffffffffffffff168473ffffffffffffffffffffffffffffffffffffffff16148061272157506127208484610f08565b5b8061275f57508273ffffffffffffffffffffffffffffffffffffffff1661274783611109565b73ffffffffffffffffffffffffffffffffffffffff16145b5b90509392505050565b5f73ffffffffffffffffffffffffffffffffffffffff168273ffffffffffffffffffffffffffffffffffffffff16036127d9575f6040517f64a0ae920000000000000000000000000000000000000000000000000000000081526004016127d09190612f1c565b60405180910390fd5b5f6127e583835f61115b565b90505f73ffffffffffffffffffffffffffffffffffffffff168173ffffffffffffffffffffffffffffffffffffffff1614612857575f6040517f73c6ac6e00000000000000000000000000000000000000000000000000000000815260040161284e9190612f1c565b60405180910390fd5b505050565b60605f61286883612aba565b90505f600d67ffffffffffffffff811115612886576128856131e9565b5b6040519080825280601f01601f1916602001820160405280156128b85781602001600182028036833780820191505090505b5090505f5b600681101561293e57826002826128d49190614267565b815181106128e5576128e461429a565b5b602001015160f81c60f81b8282815181106129035761290261429a565b5b60200101907effffffffffffffffffffffffffffffffffffffffffffffffffffffffffffff191690815f1a90535080806001019150506128bd565b50602e60f81b816006815181106129585761295761429a565b5b60200101907effffffffffffffffffffffffffffffffffffffffffffffffffffffffffffff191690815f1a905350602e60f81b8160078151811061299f5761299e61429a565b5b60200101907effffffffffffffffffffffffffffffffffffffffffffffffffffffffffffff191690815f1a905350602e60f81b816008815181106129e6576129e561429a565b5b60200101907effffffffffffffffffffffffffffffffffffffffffffffffffffffffffffff191690815f1a9053505f5b6004811015612aaf57828160048551612a2f9190614308565b612a399190614267565b81518110612a4a57612a4961429a565b5b602001015160f81c60f81b82826009612a639190614267565b81518110612a7457612a7361429a565b5b60200101907effffffffffffffffffffffffffffffffffffffffffffffffffffffffffffff191690815f1a9053508080600101915050612a16565b508092505050919050565b60605f602a67ffffffffffffffff811115612ad857612ad76131e9565b5b6040519080825280601f01601f191660200182016040528015612b0a5781602001600182028036833780820191505090505b5090507f3000000000000000000000000000000000000000000000000000000000000000815f81518110612b4157612b4061429a565b5b60200101907effffffffffffffffffffffffffffffffffffffffffffffffffffffffffffff191690815f1a9053507f780000000000000000000000000000000000000000000000000000000000000081600181518110612ba457612ba361429a565b5b60200101907effffffffffffffffffffffffffffffffffffffffffffffffffffffffffffff191690815f1a9053505f7f303132333435363738396162636465660000000000000000000000000000000090505f8490505f602990505b60028110612ca95782600f831673ffffffffffffffffffffffffffffffffffffffff1660108110612c3457612c3361429a565b5b1a60f81b848281518110612c4b57612c4a61429a565b5b60200101907effffffffffffffffffffffffffffffffffffffffffffffffffffffffffffff191690815f1a90535060048273ffffffffffffffffffffffffffffffffffffffff16901c91508080612ca190614210565b915050612c00565b50829350505050919050565b6040518060c001604052805f73ffffffffffffffffffffffffffffffffffffffff1681526020015f73ffffffffffffffffffffffffffffffffffffffff1681526020015f81526020015f81526020015f81526020015f81525090565b5f604051905090565b5f80fd5b5f80fd5b5f7fffffffff0000000000000000000000000000000000000000000000000000000082169050919050565b612d5681612d22565b8114612d60575f80fd5b50565b5f81359050612d7181612d4d565b92915050565b5f60208284031215612d8c57612d8b612d1a565b5b5f612d9984828501612d63565b91505092915050565b5f8115159050919050565b612db681612da2565b82525050565b5f602082019050612dcf5f830184612dad565b92915050565b5f81519050919050565b5f82825260208201905092915050565b5f5b83811015612e0c578082015181840152602081019050612df1565b5f8484015250505050565b5f601f19601f8301169050919050565b5f612e3182612dd5565b612e3b8185612ddf565b9350612e4b818560208601612def565b612e5481612e17565b840191505092915050565b5f6020820190508181035f830152612e778184612e27565b905092915050565b5f819050919050565b612e9181612e7f565b8114612e9b575f80fd5b50565b5f81359050612eac81612e88565b92915050565b5f60208284031215612ec757612ec6612d1a565b5b5f612ed484828501612e9e565b91505092915050565b5f73ffffffffffffffffffffffffffffffffffffffff82169050919050565b5f612f0682612edd565b9050919050565b612f1681612efc565b82525050565b5f602082019050612f2f5f830184612f0d565b92915050565b612f3e81612efc565b8114612f48575f80fd5b50565b5f81359050612f5981612f35565b92915050565b5f8060408385031215612f7557612f74612d1a565b5b5f612f8285828601612f4b565b9250506020612f9385828601612e9e565b9150509250929050565b5f805f60608486031215612fb457612fb3612d1a565b5b5f612fc186828701612f4b565b9350506020612fd286828701612f4b565b9250506040612fe386828701612e9e565b9150509250925092565b5f805f805f8060c0878903121561300757613006612d1a565b5b5f61301489828a01612f4b565b965050602061302589828a01612f4b565b955050604061303689828a01612e9e565b945050606061304789828a01612e9e565b935050608061305889828a01612e9e565b92505060a061306989828a01612e9e565b9150509295509295509295565b61307f81612e7f565b82525050565b5f6020820190506130985f830184613076565b92915050565b5f602082840312156130b3576130b2612d1a565b5b5f6130c084828501612f4b565b91505092915050565b6130d281612da2565b81146130dc575f80fd5b50565b5f813590506130ed816130c9565b92915050565b5f806040838503121561310957613108612d1a565b5b5f61311685828601612f4b565b9250506020613127858286016130df565b9150509250929050565b61313a81612efc565b82525050565b61314981612e7f565b82525050565b60c082015f8201516131635f850182613131565b5060208201516131766020850182613131565b5060408201516131896040850182613140565b50606082015161319c6060850182613140565b5060808201516131af6080850182613140565b5060a08201516131c260a0850182613140565b50505050565b5f60c0820190506131db5f83018461314f565b92915050565b5f80fd5b5f80fd5b7f4e487b71000000000000000000000000000000000000000000000000000000005f52604160045260245ffd5b61321f82612e17565b810181811067ffffffffffffffff8211171561323e5761323d6131e9565b5b80604052505050565b5f613250612d11565b905061325c8282613216565b919050565b5f67ffffffffffffffff82111561327b5761327a6131e9565b5b61328482612e17565b9050602081019050919050565b828183375f83830152505050565b5f6132b16132ac84613261565b613247565b9050828152602081018484840111156132cd576132cc6131e5565b5b6132d8848285613291565b509392505050565b5f82601f8301126132f4576132f36131e1565b5b813561330484826020860161329f565b91505092915050565b5f805f806080858703121561332557613324612d1a565b5b5f61333287828801612f4b565b945050602061334387828801612f4b565b935050604061335487828801612e9e565b925050606085013567ffffffffffffffff81111561337557613374612d1e565b5b613381878288016132e0565b91505092959194509250565b5f80604083850312156133a3576133a2612d1a565b5b5f6133b085828601612f4b565b92505060206133c185828601612f4b565b9150509250929050565b7f4e487b71000000000000000000000000000000000000000000000000000000005f52602260045260245ffd5b5f600282049050600182168061340f57607f821691505b602082108103613422576134216133cb565b5b50919050565b5f60608201905061343b5f830186612f0d565b6134486020830185613076565b6134556040830184612f0d565b949350505050565b7f456e65726779526563656970743a2063616c6c6572206973206e6f7420456e655f8201527f7267794d61726b65740000000000000000000000000000000000000000000000602082015250565b5f6134b7602983612ddf565b91506134c28261345d565b604082019050919050565b5f6020820190508181035f8301526134e4816134ab565b9050919050565b7f4e487b71000000000000000000000000000000000000000000000000000000005f52601160045260245ffd5b5f61352282612e7f565b91507fffffffffffffffffffffffffffffffffffffffffffffffffffffffffffffffff8203613554576135536134eb565b5b600182019050919050565b7f456e65726779526563656970743a207a65726f206164647265737300000000005f82015250565b5f613593601b83612ddf565b915061359e8261355f565b602082019050919050565b5f6020820190508181035f8301526135c081613587565b9050919050565b7f456e65726779526563656970743a20746f6b656e20646f6573206e6f742065785f8201527f6973740000000000000000000000000000000000000000000000000000000000602082015250565b5f613621602383612ddf565b915061362c826135c7565b604082019050919050565b5f6020820190508181035f83015261364e81613615565b9050919050565b7f4e487b71000000000000000000000000000000000000000000000000000000005f52601260045260245ffd5b5f61368c82612e7f565b915061369783612e7f565b9250826136a7576136a6613655565b5b828204905092915050565b5f81905092915050565b7f7b226e616d65223a2257617474436861696e20526563656970742023000000005f82015250565b5f6136f0601c836136b2565b91506136fb826136bc565b601c82019050919050565b5f61371082612dd5565b61371a81856136b2565b935061372a818560208601612def565b80840191505092915050565b7f222c0000000000000000000000000000000000000000000000000000000000005f82015250565b5f61376a6002836136b2565b915061377582613736565b600282019050919050565b7f226465736372697074696f6e223a2250325020456e65726779205472616465205f8201527f52656365697074206f6e204d6f6e6164222c0000000000000000000000000000602082015250565b5f6137da6032836136b2565b91506137e582613780565b603282019050919050565b7f22696d616765223a22646174613a696d6167652f7376672b786d6c3b626173655f8201527f36342c0000000000000000000000000000000000000000000000000000000000602082015250565b5f61384a6023836136b2565b9150613855826137f0565b602382019050919050565b7f2261747472696275746573223a5b0000000000000000000000000000000000005f82015250565b5f613894600e836136b2565b915061389f82613860565b600e82019050919050565b7f7b2274726169745f74797065223a226b5768222c2276616c7565223a000000005f82015250565b5f6138de601c836136b2565b91506138e9826138aa565b601c82019050919050565b7f7d2c0000000000000000000000000000000000000000000000000000000000005f82015250565b5f6139286002836136b2565b9150613933826138f4565b600282019050919050565b7f7b2274726169745f74797065223a225472616465204944222c2276616c7565225f8201527f3a00000000000000000000000000000000000000000000000000000000000000602082015250565b5f6139986021836136b2565b91506139a38261393e565b602182019050919050565b7f7b2274726169745f74797065223a2254696d657374616d70222c2276616c75655f8201527f223a000000000000000000000000000000000000000000000000000000000000602082015250565b5f613a086022836136b2565b9150613a13826139ae565b602282019050919050565b7f7d000000000000000000000000000000000000000000000000000000000000005f82015250565b5f613a526001836136b2565b9150613a5d82613a1e565b600182019050919050565b7f5d7d0000000000000000000000000000000000000000000000000000000000005f82015250565b5f613a9c6002836136b2565b9150613aa782613a68565b600282019050919050565b5f613abc826136e4565b9150613ac88288613706565b9150613ad38261375e565b9150613ade826137ce565b9150613ae98261383e565b9150613af58287613706565b9150613b008261375e565b9150613b0b82613888565b9150613b16826138d2565b9150613b228286613706565b9150613b2d8261391c565b9150613b388261398c565b9150613b448285613706565b9150613b4f8261391c565b9150613b5a826139fc565b9150613b668284613706565b9150613b7182613a46565b9150613b7c82613a90565b91508190509695505050505050565b7f646174613a6170706c69636174696f6e2f6a736f6e3b6261736536342c0000005f82015250565b5f613bbf601d836136b2565b9150613bca82613b8b565b601d82019050919050565b5f613bdf82613bb3565b9150613beb8284613706565b915081905092915050565b5f81519050919050565b5f82825260208201905092915050565b5f613c1a82613bf6565b613c248185613c00565b9350613c34818560208601612def565b613c3d81612e17565b840191505092915050565b5f608082019050613c5b5f830187612f0d565b613c686020830186612f0d565b613c756040830185613076565b8181036060830152613c878184613c10565b905095945050505050565b5f81519050613ca081612d4d565b92915050565b5f60208284031215613cbb57613cba612d1a565b5b5f613cc884828501613c92565b91505092915050565b7f206b5768000000000000000000000000000000000000000000000000000000005f82015250565b5f613d056004836136b2565b9150613d1082613cd1565b600482019050919050565b5f613d268284613706565b9150613d3182613cf9565b915081905092915050565b7f206d4d4f4e0000000000000000000000000000000000000000000000000000005f82015250565b5f613d706005836136b2565b9150613d7b82613d3c565b600582019050919050565b5f613d918284613706565b9150613d9c82613d64565b915081905092915050565b7f3c73766720786d6c6e733d22687474703a2f2f7777772e77332e6f72672f32305f8201527f30302f737667222077696474683d2234303022206865696768743d223238302260208201527f207374796c653d226261636b67726f756e643a233066313732613b666f6e742d60408201527f66616d696c793a6d6f6e6f7370616365223e0000000000000000000000000000606082015250565b5f613e4d6072836136b2565b9150613e5882613da7565b607282019050919050565b7f3c7265637420783d2231322220793d223132222077696474683d2233373622205f8201527f6865696768743d22323536222072783d223136222066696c6c3d226e6f6e652260208201527f207374726f6b653d222337633361656422207374726f6b652d77696474683d2260408201527f32222f3e00000000000000000000000000000000000000000000000000000000606082015250565b5f613f096064836136b2565b9150613f1482613e63565b606482019050919050565b7f3c7465787420783d223230302220793d2235322220746578742d616e63686f725f8201527f3d226d6964646c65222066696c6c3d22236137386266612220666f6e742d736960208201527f7a653d2232302220666f6e742d7765696768743d22626f6c64223e576174744360408201527f6861696e20526563656970743c2f746578743e00000000000000000000000000606082015250565b5f613fc56073836136b2565b9150613fd082613f1f565b607382019050919050565b7f3c7465787420783d223230302220793d2237342220746578742d616e63686f725f8201527f3d226d6964646c65222066696c6c3d22233664323864392220666f6e742d736960208201527f7a653d223131223e50325020456e65726779205472616465206f6e204d6f6e6160408201527f643c2f746578743e000000000000000000000000000000000000000000000000606082015250565b5f6140816068836136b2565b915061408c82613fdb565b606882019050919050565b7f3c6c696e652078313d223330222079313d223836222078323d223337302220795f8201527f323d22383622207374726f6b653d222331653162346222207374726f6b652d7760208201527f696474683d2231222f3e00000000000000000000000000000000000000000000604082015250565b5f614117604a836136b2565b915061412282614097565b604a82019050919050565b7f3c2f7376673e00000000000000000000000000000000000000000000000000005f82015250565b5f6141616006836136b2565b915061416c8261412d565b600682019050919050565b5f61418182613e41565b915061418c82613efd565b915061419782613fb9565b91506141a282614075565b91506141ad8261410b565b91506141b98289613706565b91506141c58288613706565b91506141d18287613706565b91506141dd8286613706565b91506141e98285613706565b91506141f58284613706565b915061420082614155565b9150819050979650505050505050565b5f61421a82612e7f565b91505f820361422c5761422b6134eb565b5b600182039050919050565b5f61424182612e7f565b915061424c83612e7f565b92508261425c5761425b613655565b5b828206905092915050565b5f61427182612e7f565b915061427c83612e7f565b9250828201905080821115614294576142936134eb565b5b92915050565b7f4e487b71000000000000000000000000000000000000000000000000000000005f52603260045260245ffd5b5f6142d182612e7f565b91506142dc83612e7f565b92508282026142ea81612e7f565b91508282048414831517614301576143006134eb565b5b5092915050565b5f61431282612e7f565b915061431d83612e7f565b9250828203905081811115614335576143346134eb565b5b92915050565b5f60408201905061434e5f830185612f0d565b61435b6020830184613076565b9392505050565b7f3c7465787420783d2233362220793d22000000000000000000000000000000005f82015250565b5f6143966010836136b2565b91506143a182614362565b601082019050919050565b7f222066696c6c3d22233934613362382220666f6e742d73697a653d223131223e5f82015250565b5f6143e06020836136b2565b91506143eb826143ac565b602082019050919050565b7f3c2f746578743e000000000000000000000000000000000000000000000000005f82015250565b5f61442a6007836136b2565b9150614435826143f6565b600782019050919050565b7f3c7465787420783d223336342220793d220000000000000000000000000000005f82015250565b5f6144746011836136b2565b915061447f82614440565b601182019050919050565b7f2220746578742d616e63686f723d22656e64222066696c6c3d222365326538665f8201527f302220666f6e742d73697a653d223131223e0000000000000000000000000000602082015250565b5f6144e46032836136b2565b91506144ef8261448a565b603282019050919050565b5f6145048261438a565b91506145108287613706565b915061451b826143d4565b91506145278286613706565b91506145328261441e565b915061453d82614468565b91506145498285613706565b9150614554826144d8565b91506145608284613706565b915061456b8261441e565b91508190509594505050505056fe4142434445464748494a4b4c4d4e4f505152535455565758595a6162636465666768696a6b6c6d6e6f707172737475767778797a303132333435363738392b2fa2646970667358221220d0d1038a323621d75a6bda4240d7f7a1595526a3c25b6389d03513fe553ab91f64736f6c63430008180033","linkReferences":{}},"methodIdentifiers":{"approve(address,uint256)":"095ea7b3","balanceOf(address)":"70a08231","energyMarket()":"b0a9fded","getApproved(uint256)":"081812fc","getReceipt(uint256)":"b63e6ac3","isApprovedForAll(address,address)":"e985e9c5","mintReceipt(address,address,uint256,uint256,uint256,uint256)":"3b5a8255","name()":"06fdde03","owner()":"8da5cb5b","ownerOf(uint256)":"6352211e","renounceOwnership()":"715018a6","safeTransferFrom(address,address,uint256)":"42842e0e","safeTransferFrom(address,address,uint256,bytes)":"b88d4fde","setApprovalForAll(address,bool)":"a22cb465","setEnergyMarket(address)":"89c16bd1","supportsInterface(bytes4)":"01ffc9a7","symbol()":"95d89b41","tokenURI(uint256)":"c87b56dd","transferFrom(address,address,uint256)":"23b872dd","transferOwnership(address)":"f2fde38b"},"id":38}